:020000040800F2
:1000000040040120DD010008E5010008E7010008C7
:10001000E9010008EB010008ED0100080000000004
:10002000000000000000000000000000EF010008D8
:10003000F101000800000000F3010008250200089B
:10004000F7010008F7010008F7010008F7010008B0
:10005000F7010008F7010008F7010008F7010008A0
:10006000F7010008F7010008F7010008F701000890
:10007000F7010008F7010008F7010008F701000880
:10008000F7010008F7010008F7010008F701000870
:10009000F7010008F7010008F7010008F701000860
:1000A000F7010008F7010008F7010008F701000850
:1000B000F7010008F7010008F7010008F701000840
:1000C000F7010008F7010008F7010008F701000830
:1000D000F7010008F7010008F7010008F701000820
:1000E000F7010008F7010008F7010008F701000810
:1000F000F7010008F7010008F7010008F701000800
:10010000F7010008F7010008F7010008F7010008EF
:10011000F7010008F7010008F7010008F7010008DF
:10012000F7010008F7010008F7010008F7010008CF
:10013000F7010008F7010008F7010008F7010008BF
:10014000F7010008F7010008F7010008F7010008AF
:10015000F7010008F7010008F7010008F70100089F
:10016000F7010008F7010008F7010008F70100088F
:10017000F7010008F7010008F7010008000000007F
:10018000F7010008F7010008F7010008F70100086F
:10019000F7010008F7010008F7010008F70100085F
:1001A000F7010008F7010008F7010008F70100084F
:1001B000F7010008F7010008F7010008F70100083F
:1001C000F7010008F7010008DFF80CD000F018F87C
:1001D0000048004799030008400401200648804772
:1001E00006480047FEE7FEE7FEE7FEE7FEE7FEE71C
:1001F000FEE7FEE7FEE7FEE715030008C901000879
:10020000064C074D06E0E06840F0010394E8070063
:1002100098471034AC42F6D3FFF7DAFF7C040008AD
:100220009C0400080949086800EBD0714910A0EB54
:10023000410151B906480068401C0549086008465C
:1002400000680A2801D100200860704734000120AE
:100250002C00012070B5002000220223002402217E
:10026000274D2D6805F00C0020B1042806D0082881
:1002700034D107E0234D244E356033E0234D224E28
:1002800035602FE01E4D2D1F2D68C5F380541C4D89
:100290002D1F2D6805F03F0154B11C4DB5FBF1F544
:1002A000174E361F3668C6F3881605FB06F209E0BE
:1002B000144DB5FBF1F5124E361F3668C6F388169D
:1002C00005FB06F20E4D2D1F2D68C5F301456D1C73
:1002D0006B00B2FBF3F50C4E356003E0094D0A4E9E
:1002E000356000BF00BF064D2D68C5F30315084EED
:1002F000705D054D2D68C540034E356070BD000032
:10030000083802400024F4003800012040787D01C4
:10031000640400081448006840F470001249086042
:100320001248006840F001001049086000200F49A1
:10033000083108600D4800680D4908400B49086005
:100340000C48091D0860081F006820F48020091F60
:100350000860002005490C3108604FF00060024938
:10036000803908607047000088ED00E000380240E6
:10037000FFFFF6FE1030002402E008C8121F08C17B
:10038000002AFAD170477047002001E001C1121F16
:10039000002AFBD17047000004202949086041F27F
:1003A0005550284908600020091D086041F2555049
:1003B000091D08600020091D0860FFF74BFF224857
:1003C0000168481EB0F1807F00D31BE0481E4FF04B
:1003D000E022506150170F22002804DB13071C0E87
:1003E0001A4B1C5406E013071D0E194B00F00F04A6
:1003F000241F1D5500BF00204FF0E0229061072010
:10040000106100BF1BE00F481030006800F400507E
:10041000B0F5005F0BD1002000E0401C0D490968D9
:100420008842FADB0C480068401C0B4908600B4806
:100430000B49096850F82100024914310860E2E7CD
:1004400030380240000802403800012000E400E09B
:1004500018ED00E0300001203400012000000120F0
:100460002C00012000000000000000000102030435
:100470000607080900000000010203049C040008AC
:10048000000001203C00000078030008D8040008A8
:100490003C00012004040000880300087E000000E6
:1004A000300000006D000000790000003300000003
:1004B0005B0000005F000000700000007F00000093
:1004C00073000000000000000000000050C30000A6
:0804D000010000000024F4000B
:04000005080001DD11
:00000001FF
